{
  "address": "0xc20d9bd10Fe015C9d1a69B2A5739B248fab7f8e7",
  "abi": [
    {
      "inputs": [],
      "stateMutability": "nonpayable",
      "type": "constructor"
    },
    {
      "anonymous": false,
      "inputs": [
        {
          "indexed": true,
          "internalType": "address",
          "name": "black",
          "type": "address"
        }
      ],
      "name": "AddBlackList",
      "type": "event"
    },
    {
      "anonymous": false,
      "inputs": [
        {
          "indexed": true,
          "internalType": "address",
          "name": "owner",
          "type": "address"
        },
        {
          "indexed": true,
          "internalType": "address",
          "name": "spender",
          "type": "address"
        },
        {
          "indexed": false,
          "internalType": "uint256",
          "name": "value",
          "type": "uint256"
        }
      ],
      "name": "Approval",
      "type": "event"
    },
    {
      "anonymous": false,
      "inputs": [
        {
          "indexed": true,
          "internalType": "address",
          "name": "previousOwner",
          "type": "address"
        },
        {
          "indexed": true,
          "internalType": "address",
          "name": "newOwner",
          "type": "address"
        }
      ],
      "name": "OwnershipTransferred",
      "type": "event"
    },
    {
      "anonymous": false,
      "inputs": [
        {
          "indexed": true,
          "internalType": "address",
          "name": "white",
          "type": "address"
        }
      ],
      "name": "RemoveFromBlackList",
      "type": "event"
    },
    {
      "anonymous": false,
      "inputs": [
        {
          "indexed": true,
          "internalType": "address",
          "name": "feeTo",
          "type": "address"
        }
      ],
      "name": "SetFeeTo",
      "type": "event"
    },
    {
      "anonymous": false,
      "inputs": [
        {
          "indexed": false,
          "internalType": "uint256",
          "name": "burnFee",
          "type": "uint256"
        },
        {
          "indexed": false,
          "internalType": "uint256",
          "name": "fundFee",
          "type": "uint256"
        }
      ],
      "name": "SetFeeValues",
      "type": "event"
    },
    {
      "anonymous": false,
      "inputs": [
        {
          "indexed": true,
          "internalType": "address",
          "name": "from",
          "type": "address"
        },
        {
          "indexed": true,
          "internalType": "address",
          "name": "to",
          "type": "address"
        },
        {
          "indexed": false,
          "internalType": "uint256",
          "name": "value",
          "type": "uint256"
        }
      ],
      "name": "Transfer",
      "type": "event"
    },
    {
      "anonymous": false,
      "inputs": [
        {
          "indexed": true,
          "internalType": "address",
          "name": "from",
          "type": "address"
        },
        {
          "indexed": true,
          "internalType": "address",
          "name": "to",
          "type": "address"
        },
        {
          "indexed": false,
          "internalType": "uint256",
          "name": "amount",
          "type": "uint256"
        },
        {
          "indexed": false,
          "internalType": "uint256",
          "name": "burnAmount",
          "type": "uint256"
        },
        {
          "indexed": false,
          "internalType": "uint256",
          "name": "fundAmount",
          "type": "uint256"
        }
      ],
      "name": "TransferWithFee",
      "type": "event"
    },
    {
      "inputs": [
        {
          "internalType": "address",
          "name": "_black",
          "type": "address"
        }
      ],
      "name": "addBlackList",
      "outputs": [],
      "stateMutability": "nonpayable",
      "type": "function"
    },
    {
      "inputs": [
        {
          "internalType": "address",
          "name": "owner",
          "type": "address"
        },
        {
          "internalType": "address",
          "name": "spender",
          "type": "address"
        }
      ],
      "name": "allowance",
      "outputs": [
        {
          "internalType": "uint256",
          "name": "",
          "type": "uint256"
        }
      ],
      "stateMutability": "view",
      "type": "function"
    },
    {
      "inputs": [
        {
          "internalType": "address",
          "name": "spender",
          "type": "address"
        },
        {
          "internalType": "uint256",
          "name": "amount",
          "type": "uint256"
        }
      ],
      "name": "approve",
      "outputs": [
        {
          "internalType": "bool",
          "name": "",
          "type": "bool"
        }
      ],
      "stateMutability": "nonpayable",
      "type": "function"
    },
    {
      "inputs": [
        {
          "internalType": "address",
          "name": "account",
          "type": "address"
        }
      ],
      "name": "balanceOf",
      "outputs": [
        {
          "internalType": "uint256",
          "name": "",
          "type": "uint256"
        }
      ],
      "stateMutability": "view",
      "type": "function"
    },
    {
      "inputs": [],
      "name": "decimals",
      "outputs": [
        {
          "internalType": "uint8",
          "name": "",
          "type": "uint8"
        }
      ],
      "stateMutability": "view",
      "type": "function"
    },
    {
      "inputs": [
        {
          "internalType": "address",
          "name": "spender",
          "type": "address"
        },
        {
          "internalType": "uint256",
          "name": "subtractedValue",
          "type": "uint256"
        }
      ],
      "name": "decreaseAllowance",
      "outputs": [
        {
          "internalType": "bool",
          "name": "",
          "type": "bool"
        }
      ],
      "stateMutability": "nonpayable",
      "type": "function"
    },
    {
      "inputs": [],
      "name": "feeTo",
      "outputs": [
        {
          "internalType": "address",
          "name": "",
          "type": "address"
        }
      ],
      "stateMutability": "view",
      "type": "function"
    },
    {
      "inputs": [
        {
          "internalType": "address",
          "name": "spender",
          "type": "address"
        },
        {
          "internalType": "uint256",
          "name": "addedValue",
          "type": "uint256"
        }
      ],
      "name": "increaseAllowance",
      "outputs": [
        {
          "internalType": "bool",
          "name": "",
          "type": "bool"
        }
      ],
      "stateMutability": "nonpayable",
      "type": "function"
    },
    {
      "inputs": [],
      "name": "name",
      "outputs": [
        {
          "internalType": "string",
          "name": "",
          "type": "string"
        }
      ],
      "stateMutability": "view",
      "type": "function"
    },
    {
      "inputs": [],
      "name": "owner",
      "outputs": [
        {
          "internalType": "address",
          "name": "",
          "type": "address"
        }
      ],
      "stateMutability": "view",
      "type": "function"
    },
    {
      "inputs": [
        {
          "internalType": "address",
          "name": "_white",
          "type": "address"
        }
      ],
      "name": "removeFromBlackList",
      "outputs": [],
      "stateMutability": "nonpayable",
      "type": "function"
    },
    {
      "inputs": [],
      "name": "renounceOwnership",
      "outputs": [],
      "stateMutability": "nonpayable",
      "type": "function"
    },
    {
      "inputs": [
        {
          "internalType": "address",
          "name": "_to",
          "type": "address"
        }
      ],
      "name": "setFeeTo",
      "outputs": [],
      "stateMutability": "nonpayable",
      "type": "function"
    },
    {
      "inputs": [
        {
          "internalType": "uint256",
          "name": "__burnFee",
          "type": "uint256"
        },
        {
          "internalType": "uint256",
          "name": "__fundFee",
          "type": "uint256"
        }
      ],
      "name": "setFeeValues",
      "outputs": [],
      "stateMutability": "nonpayable",
      "type": "function"
    },
    {
      "inputs": [],
      "name": "symbol",
      "outputs": [
        {
          "internalType": "string",
          "name": "",
          "type": "string"
        }
      ],
      "stateMutability": "view",
      "type": "function"
    },
    {
      "inputs": [],
      "name": "totalSupply",
      "outputs": [
        {
          "internalType": "uint256",
          "name": "",
          "type": "uint256"
        }
      ],
      "stateMutability": "view",
      "type": "function"
    },
    {
      "inputs": [],
      "name": "totalTransferFee",
      "outputs": [
        {
          "internalType": "uint256",
          "name": "",
          "type": "uint256"
        }
      ],
      "stateMutability": "view",
      "type": "function"
    },
    {
      "inputs": [
        {
          "internalType": "address",
          "name": "to",
          "type": "address"
        },
        {
          "internalType": "uint256",
          "name": "amount",
          "type": "uint256"
        }
      ],
      "name": "transfer",
      "outputs": [
        {
          "internalType": "bool",
          "name": "",
          "type": "bool"
        }
      ],
      "stateMutability": "nonpayable",
      "type": "function"
    },
    {
      "inputs": [
        {
          "internalType": "address",
          "name": "from",
          "type": "address"
        },
        {
          "internalType": "address",
          "name": "to",
          "type": "address"
        },
        {
          "internalType": "uint256",
          "name": "amount",
          "type": "uint256"
        }
      ],
      "name": "transferFrom",
      "outputs": [
        {
          "internalType": "bool",
          "name": "",
          "type": "bool"
        }
      ],
      "stateMutability": "nonpayable",
      "type": "function"
    },
    {
      "inputs": [
        {
          "internalType": "address",
          "name": "newOwner",
          "type": "address"
        }
      ],
      "name": "transferOwnership",
      "outputs": [],
      "stateMutability": "nonpayable",
      "type": "function"
    }
  ],
  "transactionHash": "0x0f7939a75b6da3e9807498e63b257cc003deab6347a64e065386cd63c1d9f63b",
  "args": [],
  "solcInputHash": "78c128b109c7c2f09d7cdcb3544f3fc4",
  "bytecode": "0x60806040526e13426172c74d822b878fe8000000006006553480156200002457600080fd5b50604051806040016040528060098152602001682332b2902a37b5b2b760b91b815250604051806040016040528060088152602001672332b2aa37b5b2b760c11b815250620000826200007c620000ca60201b60201c565b620000ce565b81516200009790600490602085019062000206565b508051620000ad90600590602084019062000206565b505050620000c4336006546200011e60201b60201c565b6200030e565b3390565b600080546001600160a01b038381166001600160a01b0319831681178455604051919092169283917f8be0079c531659141344cd1fd0a4f28419497f9722a3daafe3b4186f6b6457e09190a35050565b6001600160a01b038216620001795760405162461bcd60e51b815260206004820152601f60248201527f45524332303a206d696e7420746f20746865207a65726f206164647265737300604482015260640160405180910390fd5b80600360008282546200018d9190620002ac565b90915550506001600160a01b03821660009081526001602052604081208054839290620001bc908490620002ac565b90915550506040518181526001600160a01b038316906000907fddf252ad1be2c89b69c2b068fc378daa952ba7f163c4a11628f55a4df523b3ef9060200160405180910390a35050565b8280546200021490620002d1565b90600052602060002090601f01602090048101928262000238576000855562000283565b82601f106200025357805160ff191683800117855562000283565b8280016001018555821562000283579182015b828111156200028357825182559160200191906001019062000266565b506200029192915062000295565b5090565b5b8082111562000291576000815560010162000296565b60008219821115620002cc57634e487b7160e01b81526011600452602481fd5b500190565b600181811c90821680620002e657607f821691505b602082108114156200030857634e487b7160e01b600052602260045260246000fd5b50919050565b61125b806200031e6000396000f3fe608060405234801561001057600080fd5b506004361061012c5760003560e01c806352af6807116100ad578063a457c2d711610071578063a457c2d71461026b578063a9059cbb1461027e578063dd62ed3e14610291578063f2fde38b146102ca578063f46901ed146102dd57600080fd5b806352af68071461020e57806370a0823114610221578063715018a61461024a5780638da5cb5b1461025257806395d89b411461026357600080fd5b806318160ddd116100f457806318160ddd146101be57806323b872dd146101c6578063313ce567146101d957806339509351146101e85780634a49ac4c146101fb57600080fd5b8063017e7e581461013157806306fdde031461015b578063095ea7b3146101705780630e224932146101935780630ecb93c0146101a9575b600080fd5b600a546001600160a01b03165b6040516001600160a01b0390911681526020015b60405180910390f35b6101636102f0565b60405161015291906110de565b61018361017e366004611094565b610382565b6040519015158152602001610152565b61019b61039c565b604051908152602001610152565b6101bc6101b736600461100d565b6103b3565b005b60035461019b565b6101836101d4366004611059565b610481565b60405160128152602001610152565b6101836101f6366004611094565b6104a5565b6101bc61020936600461100d565b6104e4565b6101bc61021c3660046110bd565b6105a8565b61019b61022f36600461100d565b6001600160a01b031660009081526001602052604090205490565b6101bc6106bd565b6000546001600160a01b031661013e565b6101636106f3565b610183610279366004611094565b610702565b61018361028c366004611094565b610794565b61019b61029f366004611027565b6001600160a01b03918216600090815260026020908152604080832093909416825291909152205490565b6101bc6102d836600461100d565b6107a2565b6101bc6102eb36600461100d565b61083d565b6060600480546102ff906111d4565b80601f016020809104026020016040519081016040528092919081815260200182805461032b906111d4565b80156103785780601f1061034d57610100808354040283529160200191610378565b820191906000526020600020905b81548152906001019060200180831161035b57829003601f168201915b5050505050905090565b600033610390818585610905565b60019150505b92915050565b60006009546008546103ae9190611166565b905090565b6000546001600160a01b031633146103e65760405162461bcd60e51b81526004016103dd90611131565b60405180910390fd5b6103f1600b82610a29565b1561043e5760405162461bcd60e51b815260206004820152601760248201527f416c7265616479206c697374656420617320626c61636b00000000000000000060448201526064016103dd565b610449600b82610a4e565b506040516001600160a01b038216907ff9dfc5050bb4c9b200f093a995458a80fb19943585b189fe5d317391abdc764590600090a250565b60003361048f858285610a63565b61049a858585610af5565b506001949350505050565b3360008181526002602090815260408083206001600160a01b038716845290915281205490919061039090829086906104df908790611166565b610905565b6000546001600160a01b0316331461050e5760405162461bcd60e51b81526004016103dd90611131565b610519600b82610a29565b6105655760405162461bcd60e51b815260206004820152601860248201527f4e6f7420626c61636b206c69737465642061646472657373000000000000000060448201526064016103dd565b610570600b82610e20565b506040516001600160a01b038216907f33ec73d3d1cf904de5823c0e76ca0d4825c2ff67bfb3a0a5ee7cd28a6f966db690600090a250565b6000546001600160a01b031633146105d25760405162461bcd60e51b81526004016103dd90611131565b6103e86105df8284611166565b111561062d5760405162461bcd60e51b815260206004820181905260248201527f4665652070657263656e61746564206973206578636565646564206c696d697460448201526064016103dd565b6008548214158061064057506009548114155b6106805760405162461bcd60e51b8152602060048201526011602482015270416c7265616479207365742076616c756560781b60448201526064016103dd565b60408051838152602081018390527f844c75db04021859233397fdcc7b46a8ce5fb7f783852118fd204bdbd889d2d4910160405180910390a15050565b6000546001600160a01b031633146106e75760405162461bcd60e51b81526004016103dd90611131565b6106f16000610e35565b565b6060600580546102ff906111d4565b3360008181526002602090815260408083206001600160a01b0387168452909152812054909190838110156107875760405162461bcd60e51b815260206004820152602560248201527f45524332303a2064656372656173656420616c6c6f77616e63652062656c6f77604482015264207a65726f60d81b60648201526084016103dd565b61049a8286868403610905565b600033610390818585610af5565b6000546001600160a01b031633146107cc5760405162461bcd60e51b81526004016103dd90611131565b6001600160a01b0381166108315760405162461bcd60e51b815260206004820152602660248201527f4f776e61626c653a206e6577206f776e657220697320746865207a65726f206160448201526564647265737360d01b60648201526084016103dd565b61083a81610e35565b50565b6000546001600160a01b031633146108675760405162461bcd60e51b81526004016103dd90611131565b600a546001600160a01b03828116911614156108bb5760405162461bcd60e51b8152602060048201526013602482015272416c726561647920736574206164647265737360681b60448201526064016103dd565b600a80546001600160a01b0319166001600160a01b0383169081179091556040517ff6b59ffc88fbb27f33470b919e00b41139ee340eb349521f0cbbc1504ce29c3e90600090a250565b6001600160a01b0383166109675760405162461bcd60e51b8152602060048201526024808201527f45524332303a20617070726f76652066726f6d20746865207a65726f206164646044820152637265737360e01b60648201526084016103dd565b6001600160a01b0382166109c85760405162461bcd60e51b815260206004820152602260248201527f45524332303a20617070726f766520746f20746865207a65726f206164647265604482015261737360f01b60648201526084016103dd565b6001600160a01b0383811660008181526002602090815260408083209487168084529482529182902085905590518481527f8c5be1e5ebec7d5bd14f71427d1e84f3dd0314c0f7b2291e5b200ac8c7c3b925910160405180910390a3505050565b6001600160a01b038116600090815260018301602052604081205415155b9392505050565b6000610a47836001600160a01b038416610e85565b6001600160a01b038381166000908152600260209081526040808320938616835292905220546000198114610aef5781811015610ae25760405162461bcd60e51b815260206004820152601d60248201527f45524332303a20696e73756666696369656e7420616c6c6f77616e636500000060448201526064016103dd565b610aef8484848403610905565b50505050565b610b00600b84610a29565b158015610b155750610b13600b83610a29565b155b610b875760405162461bcd60e51b815260206004820152603760248201527f5472616e73666572206265747765656e20626c61636b206c697374656420616460448201527f6472657373657320617265206e6f7420616c6c6f77656400000000000000000060648201526084016103dd565b6001600160a01b038316610beb5760405162461bcd60e51b815260206004820152602560248201527f45524332303a207472616e736665722066726f6d20746865207a65726f206164604482015264647265737360d81b60648201526084016103dd565b6001600160a01b038216610c4d5760405162461bcd60e51b815260206004820152602360248201527f45524332303a207472616e7366657220746f20746865207a65726f206164647260448201526265737360e81b60648201526084016103dd565b6001600160a01b03831660009081526001602052604090205481811015610cc55760405162461bcd60e51b815260206004820152602660248201527f45524332303a207472616e7366657220616d6f756e7420657863656564732062604482015265616c616e636560d01b60648201526084016103dd565b6001600160a01b0380851660009081526001602052604081208484039055600a54909182911615610d855760085415610d2d5761271060085485610d09919061119e565b610d13919061117e565b91508160036000828254610d2791906111bd565b90915550505b60095415610d855761271060095485610d46919061119e565b610d50919061117e565b600a546001600160a01b0316600090815260016020526040812080549293508392909190610d7f908490611166565b90915550505b80610d9083866111bd565b610d9a91906111bd565b6001600160a01b03861660009081526001602052604081208054909190610dc2908490611166565b909155505060408051858152602081018490529081018290526001600160a01b0380871691908816907f7e1b4577399017960fc6a1284e846e5682b112a94c7c1e28afa6dc3031324a299060600160405180910390a3505050505050565b6000610a47836001600160a01b038416610ed4565b600080546001600160a01b038381166001600160a01b0319831681178455604051919092169283917f8be0079c531659141344cd1fd0a4f28419497f9722a3daafe3b4186f6b6457e09190a35050565b6000818152600183016020526040812054610ecc57508154600181810184556000848152602080822090930184905584548482528286019093526040902091909155610396565b506000610396565b60008181526001830160205260408120548015610fe7576000610ef86001836111bd565b8554909150600090610f0c906001906111bd565b9050818114610f8d576000866000018281548110610f3a57634e487b7160e01b600052603260045260246000fd5b9060005260206000200154905080876000018481548110610f6b57634e487b7160e01b600052603260045260246000fd5b6000918252602080832090910192909255918252600188019052604090208390555b8554869080610fac57634e487b7160e01b600052603160045260246000fd5b600190038181906000526020600020016000905590558560010160008681526020019081526020016000206000905560019350505050610396565b6000915050610396565b80356001600160a01b038116811461100857600080fd5b919050565b60006020828403121561101e578081fd5b610a4782610ff1565b60008060408385031215611039578081fd5b61104283610ff1565b915061105060208401610ff1565b90509250929050565b60008060006060848603121561106d578081fd5b61107684610ff1565b925061108460208501610ff1565b9150604084013590509250925092565b600080604083850312156110a6578182fd5b6110af83610ff1565b946020939093013593505050565b600080604083850312156110cf578182fd5b50508035926020909101359150565b6000602080835283518082850152825b8181101561110a578581018301518582016040015282016110ee565b8181111561111b5783604083870101525b50601f01601f1916929092016040019392505050565b6020808252818101527f4f776e61626c653a2063616c6c6572206973206e6f7420746865206f776e6572604082015260600190565b600082198211156111795761117961120f565b500190565b60008261119957634e487b7160e01b81526012600452602481fd5b500490565b60008160001904831182151516156111b8576111b861120f565b500290565b6000828210156111cf576111cf61120f565b500390565b600181811c908216806111e857607f821691505b6020821081141561120957634e487b7160e01b600052602260045260246000fd5b50919050565b634e487b7160e01b600052601160045260246000fdfea2646970667358221220e304d5497d8954943a1013e25ba0cd5c5ae3994251d310ffb0e780ae54dda6ea64736f6c63430008040033",
  "devdoc": {
    "kind": "dev",
    "methods": {
      "allowance(address,address)": {
        "details": "See {IERC20-allowance}."
      },
      "approve(address,uint256)": {
        "details": "See {IERC20-approve}. NOTE: If `amount` is the maximum `uint256`, the allowance is not updated on `transferFrom`. This is semantically equivalent to an infinite approval. Requirements: - `spender` cannot be the zero address."
      },
      "balanceOf(address)": {
        "details": "See {IERC20-balanceOf}."
      },
      "decimals()": {
        "details": "Returns the number of decimals used to get its user representation. For example, if `decimals` equals `2`, a balance of `505` tokens should be displayed to a user as `5.05` (`505 / 10 ** 2`). Tokens usually opt for a value of 18, imitating the relationship between Ether and Wei. This is the value {ERC20} uses, unless this function is overridden; NOTE: This information is only used for _display_ purposes: it in no way affects any of the arithmetic of the contract, including {IERC20-balanceOf} and {IERC20-transfer}."
      },
      "decreaseAllowance(address,uint256)": {
        "details": "Atomically decreases the allowance granted to `spender` by the caller. This is an alternative to {approve} that can be used as a mitigation for problems described in {IERC20-approve}. Emits an {Approval} event indicating the updated allowance. Requirements: - `spender` cannot be the zero address. - `spender` must have allowance for the caller of at least `subtractedValue`."
      },
      "increaseAllowance(address,uint256)": {
        "details": "Atomically increases the allowance granted to `spender` by the caller. This is an alternative to {approve} that can be used as a mitigation for problems described in {IERC20-approve}. Emits an {Approval} event indicating the updated allowance. Requirements: - `spender` cannot be the zero address."
      },
      "name()": {
        "details": "Returns the name of the token."
      },
      "owner()": {
        "details": "Returns the address of the current owner."
      },
      "renounceOwnership()": {
        "details": "Leaves the contract without owner. It will not be possible to call `onlyOwner` functions anymore. Can only be called by the current owner. NOTE: Renouncing ownership will leave the contract without an owner, thereby removing any functionality that is only available to the owner."
      },
      "symbol()": {
        "details": "Returns the symbol of the token, usually a shorter version of the name."
      },
      "totalSupply()": {
        "details": "See {IERC20-totalSupply}."
      },
      "totalTransferFee()": {
        "details": "returns transfer fee, 10000 = 100%"
      },
      "transfer(address,uint256)": {
        "details": "See {IERC20-transfer}. Requirements: - `to` cannot be the zero address. - the caller must have a balance of at least `amount`."
      },
      "transferFrom(address,address,uint256)": {
        "details": "See {IERC20-transferFrom}. Emits an {Approval} event indicating the updated allowance. This is not required by the EIP. See the note at the beginning of {ERC20}. NOTE: Does not update the allowance if the current allowance is the maximum `uint256`. Requirements: - `from` and `to` cannot be the zero address. - `from` must have a balance of at least `amount`. - the caller must have allowance for ``from``'s tokens of at least `amount`."
      },
      "transferOwnership(address)": {
        "details": "Transfers ownership of the contract to a new account (`newOwner`). Can only be called by the current owner."
      }
    },
    "version": 1
  },
  "userdoc": {
    "kind": "user",
    "methods": {},
    "version": 1
  },
  "storageLayout": {
    "storage": [
      {
        "astId": 7,
        "contract": "contracts/FeeToken.sol:FeeToken",
        "label": "_owner",
        "offset": 0,
        "slot": "0",
        "type": "t_address"
      },
      {
        "astId": 3146,
        "contract": "contracts/FeeToken.sol:FeeToken",
        "label": "_balances",
        "offset": 0,
        "slot": "1",
        "type": "t_mapping(t_address,t_uint256)"
      },
      {
        "astId": 3152,
        "contract": "contracts/FeeToken.sol:FeeToken",
        "label": "_allowances",
        "offset": 0,
        "slot": "2",
        "type": "t_mapping(t_address,t_mapping(t_address,t_uint256))"
      },
      {
        "astId": 3154,
        "contract": "contracts/FeeToken.sol:FeeToken",
        "label": "_totalSupply",
        "offset": 0,
        "slot": "3",
        "type": "t_uint256"
      },
      {
        "astId": 3156,
        "contract": "contracts/FeeToken.sol:FeeToken",
        "label": "_name",
        "offset": 0,
        "slot": "4",
        "type": "t_string_storage"
      },
      {
        "astId": 3158,
        "contract": "contracts/FeeToken.sol:FeeToken",
        "label": "_symbol",
        "offset": 0,
        "slot": "5",
        "type": "t_string_storage"
      },
      {
        "astId": 1837,
        "contract": "contracts/FeeToken.sol:FeeToken",
        "label": "INITIAL_SUPPLY",
        "offset": 0,
        "slot": "6",
        "type": "t_uint256"
      },
      {
        "astId": 1839,
        "contract": "contracts/FeeToken.sol:FeeToken",
        "label": "_transferFee",
        "offset": 0,
        "slot": "7",
        "type": "t_uint256"
      },
      {
        "astId": 1841,
        "contract": "contracts/FeeToken.sol:FeeToken",
        "label": "_burnFee",
        "offset": 0,
        "slot": "8",
        "type": "t_uint256"
      },
      {
        "astId": 1843,
        "contract": "contracts/FeeToken.sol:FeeToken",
        "label": "_fundFee",
        "offset": 0,
        "slot": "9",
        "type": "t_uint256"
      },
      {
        "astId": 1845,
        "contract": "contracts/FeeToken.sol:FeeToken",
        "label": "_feeTo",
        "offset": 0,
        "slot": "10",
        "type": "t_address"
      },
      {
        "astId": 1848,
        "contract": "contracts/FeeToken.sol:FeeToken",
        "label": "_blackList",
        "offset": 0,
        "slot": "11",
        "type": "t_struct(AddressSet)1500_storage"
      }
    ],
    "types": {
      "t_address": {
        "encoding": "inplace",
        "label": "address",
        "numberOfBytes": "20"
      },
      "t_array(t_bytes32)dyn_storage": {
        "base": "t_bytes32",
        "encoding": "dynamic_array",
        "label": "bytes32[]",
        "numberOfBytes": "32"
      },
      "t_bytes32": {
        "encoding": "inplace",
        "label": "bytes32",
        "numberOfBytes": "32"
      },
      "t_mapping(t_address,t_mapping(t_address,t_uint256))": {
        "encoding": "mapping",
        "key": "t_address",
        "label": "mapping(address => mapping(address => uint256))",
        "numberOfBytes": "32",
        "value": "t_mapping(t_address,t_uint256)"
      },
      "t_mapping(t_address,t_uint256)": {
        "encoding": "mapping",
        "key": "t_address",
        "label": "mapping(address => uint256)",
        "numberOfBytes": "32",
        "value": "t_uint256"
      },
      "t_mapping(t_bytes32,t_uint256)": {
        "encoding": "mapping",
        "key": "t_bytes32",
        "label": "mapping(bytes32 => uint256)",
        "numberOfBytes": "32",
        "value": "t_uint256"
      },
      "t_string_storage": {
        "encoding": "bytes",
        "label": "string",
        "numberOfBytes": "32"
      },
      "t_struct(AddressSet)1500_storage": {
        "encoding": "inplace",
        "label": "struct EnumerableSet.AddressSet",
        "members": [
          {
            "astId": 1499,
            "contract": "contracts/FeeToken.sol:FeeToken",
            "label": "_inner",
            "offset": 0,
            "slot": "0",
            "type": "t_struct(Set)1199_storage"
          }
        ],
        "numberOfBytes": "64"
      },
      "t_struct(Set)1199_storage": {
        "encoding": "inplace",
        "label": "struct EnumerableSet.Set",
        "members": [
          {
            "astId": 1194,
            "contract": "contracts/FeeToken.sol:FeeToken",
            "label": "_values",
            "offset": 0,
            "slot": "0",
            "type": "t_array(t_bytes32)dyn_storage"
          },
          {
            "astId": 1198,
            "contract": "contracts/FeeToken.sol:FeeToken",
            "label": "_indexes",
            "offset": 0,
            "slot": "1",
            "type": "t_mapping(t_bytes32,t_uint256)"
          }
        ],
        "numberOfBytes": "64"
      },
      "t_uint256": {
        "encoding": "inplace",
        "label": "uint256",
        "numberOfBytes": "32"
      }
    }
  }
}