{
  "address": "0x35C581b2B121086530e9E664617710c6d1d45CC8",
  "abi": [
    {
      "inputs": [
        {
          "internalType": "address",
          "name": "_rewardsToken",
          "type": "address"
        },
        {
          "internalType": "uint256",
          "name": "_stakingRewardsGenesis",
          "type": "uint256"
        }
      ],
      "stateMutability": "nonpayable",
      "type": "constructor"
    },
    {
      "anonymous": false,
      "inputs": [
        {
          "indexed": true,
          "internalType": "address",
          "name": "stakingRewards",
          "type": "address"
        }
      ],
      "name": "DeployStakingRewardsFactory",
      "type": "event"
    },
    {
      "anonymous": false,
      "inputs": [
        {
          "indexed": true,
          "internalType": "address",
          "name": "previousOwner",
          "type": "address"
        },
        {
          "indexed": true,
          "internalType": "address",
          "name": "newOwner",
          "type": "address"
        }
      ],
      "name": "OwnershipTransferred",
      "type": "event"
    },
    {
      "inputs": [
        {
          "internalType": "address",
          "name": "stakingToken",
          "type": "address"
        }
      ],
      "name": "claimRewardAmount",
      "outputs": [],
      "stateMutability": "nonpayable",
      "type": "function"
    },
    {
      "inputs": [],
      "name": "claimRewardAmounts",
      "outputs": [],
      "stateMutability": "nonpayable",
      "type": "function"
    },
    {
      "inputs": [
        {
          "internalType": "address",
          "name": "stakingToken",
          "type": "address"
        },
        {
          "internalType": "uint256",
          "name": "rewardAmount",
          "type": "uint256"
        },
        {
          "internalType": "uint256",
          "name": "rewardsDuration",
          "type": "uint256"
        }
      ],
      "name": "deploy",
      "outputs": [],
      "stateMutability": "nonpayable",
      "type": "function"
    },
    {
      "inputs": [],
      "name": "owner",
      "outputs": [
        {
          "internalType": "address",
          "name": "",
          "type": "address"
        }
      ],
      "stateMutability": "view",
      "type": "function"
    },
    {
      "inputs": [
        {
          "internalType": "address",
          "name": "token",
          "type": "address"
        },
        {
          "internalType": "uint256",
          "name": "amount",
          "type": "uint256"
        }
      ],
      "name": "pullExtraTokens",
      "outputs": [],
      "stateMutability": "nonpayable",
      "type": "function"
    },
    {
      "inputs": [],
      "name": "renounceOwnership",
      "outputs": [],
      "stateMutability": "nonpayable",
      "type": "function"
    },
    {
      "inputs": [],
      "name": "rewardsToken",
      "outputs": [
        {
          "internalType": "address",
          "name": "",
          "type": "address"
        }
      ],
      "stateMutability": "view",
      "type": "function"
    },
    {
      "inputs": [],
      "name": "stakingRewardsGenesis",
      "outputs": [
        {
          "internalType": "uint256",
          "name": "",
          "type": "uint256"
        }
      ],
      "stateMutability": "view",
      "type": "function"
    },
    {
      "inputs": [
        {
          "internalType": "address",
          "name": "",
          "type": "address"
        }
      ],
      "name": "stakingRewardsInfoByStakingToken",
      "outputs": [
        {
          "internalType": "address",
          "name": "stakingRewards",
          "type": "address"
        },
        {
          "internalType": "uint256",
          "name": "rewardAmount",
          "type": "uint256"
        },
        {
          "internalType": "uint256",
          "name": "duration",
          "type": "uint256"
        }
      ],
      "stateMutability": "view",
      "type": "function"
    },
    {
      "inputs": [
        {
          "internalType": "uint256",
          "name": "",
          "type": "uint256"
        }
      ],
      "name": "stakingTokens",
      "outputs": [
        {
          "internalType": "address",
          "name": "",
          "type": "address"
        }
      ],
      "stateMutability": "view",
      "type": "function"
    },
    {
      "inputs": [
        {
          "internalType": "address",
          "name": "newOwner",
          "type": "address"
        }
      ],
      "name": "transferOwnership",
      "outputs": [],
      "stateMutability": "nonpayable",
      "type": "function"
    },
    {
      "inputs": [
        {
          "internalType": "address",
          "name": "stakingToken",
          "type": "address"
        },
        {
          "internalType": "uint256",
          "name": "rewardAmount",
          "type": "uint256"
        },
        {
          "internalType": "uint256",
          "name": "rewardsDuration",
          "type": "uint256"
        }
      ],
      "name": "update",
      "outputs": [],
      "stateMutability": "nonpayable",
      "type": "function"
    }
  ],
  "transactionHash": "0xbf8b31a9be566f25c680ffd4571e1afcb8cbbd992ac8fff03b4693f090062747",
  "args": [
    "0xc20d9bd10Fe015C9d1a69B2A5739B248fab7f8e7",
    10000
  ],
  "solcInputHash": "78c128b109c7c2f09d7cdcb3544f3fc4",
  "bytecode": "0x608060405234801561001057600080fd5b506040516120f83803806120f883398101604081905261002f91610133565b610038336100d4565b6001808190555061005b826001600160a01b031661012460201b6107f81760201c565b6100ab5760405162461bcd60e51b815260206004820152601b60248201527f53686f756c64206265206465706c6f79656420636f6e74726163740000000000604482015260640160405180910390fd5b600280546001600160a01b0319166001600160a01b03939093169290921790915560035561016b565b600080546001600160a01b038381166001600160a01b0319831681178455604051919092169283917f8be0079c531659141344cd1fd0a4f28419497f9722a3daafe3b4186f6b6457e09190a35050565b6001600160a01b03163b151590565b60008060408385031215610145578182fd5b82516001600160a01b038116811461015b578283fd5b6020939093015192949293505050565b611f7e8061017a6000396000f3fe608060405234801561001057600080fd5b50600436106100b45760003560e01c8063bf44ba6c11610071578063bf44ba6c1461018c578063cc0b713814610194578063cfda5478146101a7578063d09b6d43146101ba578063d1af0c7d146101cd578063f2fde38b146101e057600080fd5b8063344e5e34146100b95780636cf8caf8146100e9578063715018a6146101475780637572719e146101515780638da5cb5b14610164578063a0928c1114610175575b600080fd5b6100cc6100c7366004610b3d565b6101f3565b6040516001600160a01b0390911681526020015b60405180910390f35b6101226100f7366004610aa1565b6005602052600090815260409020805460018201546002909201546001600160a01b03909116919083565b604080516001600160a01b0390941684526020840192909252908201526060016100e0565b61014f61021d565b005b61014f61015f366004610ac2565b61025c565b6000546001600160a01b03166100cc565b61017e60035481565b6040519081526020016100e0565b61014f61030b565b61014f6101a2366004610aa1565b61044a565b61014f6101b5366004610aeb565b6104ab565b61014f6101c8366004610aeb565b6106a4565b6002546100cc906001600160a01b031681565b61014f6101ee366004610aa1565b61075d565b6004818154811061020357600080fd5b6000918252602090912001546001600160a01b0316905081565b6000546001600160a01b031633146102505760405162461bcd60e51b815260040161024790610b55565b60405180910390fd5b61025a6000610807565b565b6000546001600160a01b031633146102865760405162461bcd60e51b815260040161024790610b55565b60405163a9059cbb60e01b8152336004820152602481018290526001600160a01b0383169063a9059cbb90604401602060405180830381600087803b1580156102ce57600080fd5b505af11580156102e2573d6000803e3d6000fd5b505050506040513d601f19601f820116820180604052508101906103069190610b1d565b505050565b6002600154141561035e5760405162461bcd60e51b815260206004820152601f60248201527f5265656e7472616e637947756172643a207265656e7472616e742063616c6c006044820152606401610247565b60026001556004546103e65760405162461bcd60e51b8152602060048201526044602482018190527f5374616b696e6752657761726473466163746f72793a3a636c61696d52657761908201527f7264416d6f756e74733a2063616c6c6564206265666f726520616e79206465706064820152636c6f797360e01b608482015260a401610247565b60005b600454811015610443576104316004828154811061041757634e487b7160e01b600052603260045260246000fd5b6000918252602090912001546001600160a01b031661044a565b8061043b81610b8a565b9150506103e9565b5060018055565b6002600154141561049d5760405162461bcd60e51b815260206004820152601f60248201527f5265656e7472616e637947756172643a207265656e7472616e742063616c6c006044820152606401610247565b600260015561044381610857565b6000546001600160a01b031633146104d55760405162461bcd60e51b815260040161024790610b55565b6001600160a01b0383163b61052c5760405162461bcd60e51b815260206004820152601e60248201527f49742073686f756c64206265206465706c6f79656420636f6e747261637400006044820152606401610247565b6001600160a01b0380841660009081526005602052604090208054909116156105af5760405162461bcd60e51b815260206004820152602f60248201527f5374616b696e6752657761726473466163746f72793a3a6465706c6f793a206160448201526e1b1c9958591e4819195c1b1bde5959608a1b6064820152608401610247565b60025460405130916001600160a01b03169086906105cc90610a78565b6001600160a01b03938416815291831660208301529091166040820152606001604051809103906000f080158015610608573d6000803e3d6000fd5b5081546001600160a01b03199081166001600160a01b0392831617835560018084018690556002840185905560048054918201815560009081527f8a35acfbc15ff81a39ae7d344fd709f28e8600b4aa8c65c6b64bfe7fe36bd19b90910180549092168784161790915582546040519216917f94f0453a2a5fef23c33126f41a260b4373e1e86d6206cffe1cae46d1ddb906119190a250505050565b6000546001600160a01b031633146106ce5760405162461bcd60e51b815260040161024790610b55565b6001600160a01b038084166000908152600560205260409020805490911661074c5760405162461bcd60e51b815260206004820152602b60248201527f5374616b696e6752657761726473466163746f72793a3a7570646174653a206e60448201526a1bdd0819195c1b1bde595960aa1b6064820152608401610247565b600181019290925560029091015550565b6000546001600160a01b031633146107875760405162461bcd60e51b815260040161024790610b55565b6001600160a01b0381166107ec5760405162461bcd60e51b815260206004820152602660248201527f4f776e61626c653a206e6577206f776e657220697320746865207a65726f206160448201526564647265737360d01b6064820152608401610247565b6107f581610807565b50565b6001600160a01b03163b151590565b600080546001600160a01b038381166001600160a01b0319831681178455604051919092169283917f8be0079c531659141344cd1fd0a4f28419497f9722a3daafe3b4186f6b6457e09190a35050565b6001600160a01b03808216600090815260056020526040902080549091166108e05760405162461bcd60e51b815260206004820152603660248201527f5374616b696e6752657761726473466163746f72793a3a636c61696d526577616044820152751c99105b5bdd5b9d0e881b9bdd0819195c1b1bde595960521b6064820152608401610247565b600081600101541180156108f8575060008160020154115b15610a74576001810180546002808401805460009485905593905554835460405163a9059cbb60e01b81526001600160a01b0391821660048201526024810184905292939291169063a9059cbb90604401602060405180830381600087803b15801561096357600080fd5b505af1158015610977573d6000803e3d6000fd5b505050506040513d601f19601f8201168201806040525081019061099b9190610b1d565b610a0d5760405162461bcd60e51b815260206004820152603960248201527f5374616b696e6752657761726473466163746f72793a3a636c61696d5265776160448201527f7264416d6f756e743a207472616e73666572206661696c6564000000000000006064820152608401610247565b825460405163e5cd8a6f60e01b815260048101849052602481018390526001600160a01b039091169063e5cd8a6f90604401600060405180830381600087803b158015610a5957600080fd5b505af1158015610a6d573d6000803e3d6000fd5b5050505050505b5050565b61139780610bb283390190565b80356001600160a01b0381168114610a9c57600080fd5b919050565b600060208284031215610ab2578081fd5b610abb82610a85565b9392505050565b60008060408385031215610ad4578081fd5b610add83610a85565b946020939093013593505050565b600080600060608486031215610aff578081fd5b610b0884610a85565b95602085013595506040909401359392505050565b600060208284031215610b2e578081fd5b81518015158114610abb578182fd5b600060208284031215610b4e578081fd5b5035919050565b6020808252818101527f4f776e61626c653a2063616c6c6572206973206e6f7420746865206f776e6572604082015260600190565b6000600019821415610baa57634e487b7160e01b81526011600452602481fd5b506001019056fe60c060405234801561001057600080fd5b5060405161139738038061139783398101604081905261002f9161008e565b60018055606091821b6001600160601b0319908116608052911b1660a052600080546001600160a01b0319166001600160a01b03929092169190911790556100d0565b80516001600160a01b038116811461008957600080fd5b919050565b6000806000606084860312156100a2578283fd5b6100ab84610072565b92506100b960208501610072565b91506100c760408501610072565b90509250925092565b60805160601c60a05160601c611264610133600039600081816101f4015281816104aa015281816107250152818161086f0152610aa10152600081816102830152818161059d01528181610acb01528181610b110152610bb701526112646000f3fe608060405234801561001057600080fd5b506004361061012b5760003560e01c806380faa57d116100ad578063d1af0c7d11610071578063d1af0c7d1461027e578063df136d65146102a5578063e5cd8a6f146102ae578063ebe2b12b146102c1578063fc2b8cc3146102ca57600080fd5b806380faa57d146102325780638b8763471461023a578063a694fc3a1461025a578063c8f33c911461026d578063cd3daf9d1461027657600080fd5b80633fc6df6e116100f45780633fc6df6e1461019b57806370a08231146101c657806372f702f3146101ef5780637b0a47ee146102165780637b4638e71461021f57600080fd5b80628cc262146101305780630700037d1461015657806318160ddd146101765780632e1a7d4d1461017e5780633d18b91214610193575b600080fd5b61014361013e366004611070565b6102d2565b6040519081526020015b60405180910390f35b610143610164366004611070565b60076020526000908152604090205481565b600854610143565b61019161018c3660046110aa565b610352565b005b610191610516565b6000546101ae906001600160a01b031681565b6040516001600160a01b03909116815260200161014d565b6101436101d4366004611070565b6001600160a01b031660009081526009602052604090205490565b6101ae7f000000000000000000000000000000000000000000000000000000000000000081565b61014360035481565b61019161022d3660046110da565b610607565b610143610796565b610143610248366004611070565b60066020526000908152604090205481565b6101916102683660046110aa565b6107a9565b61014360045481565b6101436108d1565b6101ae7f000000000000000000000000000000000000000000000000000000000000000081565b61014360055481565b6101916102bc36600461110e565b61091f565b61014360025481565b610191610ceb565b6001600160a01b038116600090815260076020908152604080832054600690925282205461034c91906103469069d3c21bcecceda100000090610340906103219061031b6108d1565b90610d0e565b6001600160a01b03881660009081526009602052604090205490610d21565b90610d2d565b90610d39565b92915050565b600260015414156103aa5760405162461bcd60e51b815260206004820152601f60248201527f5265656e7472616e637947756172643a207265656e7472616e742063616c6c0060448201526064015b60405180910390fd5b6002600155336103b86108d1565b6005556103c3610796565b6004556001600160a01b0381161561040a576103de816102d2565b6001600160a01b0382166000908152600760209081526040808320939093556005546006909152919020555b336000908152600a6020526040902054156104675760405162461bcd60e51b815260206004820152601760248201527f5374696c6c20696e206c6f636b696e6720706572696f6400000000000000000060448201526064016103a1565b6008546104749083610d0e565b600855336000908152600960205260409020546104919083610d0e565b336000818152600960205260409020919091556104d9907f00000000000000000000000000000000000000000000000000000000000000006001600160a01b03169084610d45565b60405182815233907f7084f5476618d8e60b11ef0d7d3f06914655adb8793e28ff7f018d4c76d505d59060200160405180910390a2505060018055565b3361051f6108d1565b60055561052a610796565b6004556001600160a01b0381161561057157610545816102d2565b6001600160a01b0382166000908152600760209081526040808320939093556005546006909152919020555b33600090815260076020526040902054801561060357336000818152600760205260408120556105cc907f00000000000000000000000000000000000000000000000000000000000000006001600160a01b03169083610d45565b60405181815233907fe2403640ba68fed3a2f88b7557551d1993f84b99bb10ff833f0cf8db0c5e0486906020015b60405180910390a25b5050565b816106106108d1565b60055561061b610796565b6004556001600160a01b0381161561066257610636816102d2565b6001600160a01b0382166000908152600760209081526040808320939093556005546006909152919020555b6001600160a01b038316600090815260096020526040902054156106c15760405162461bcd60e51b815260206004820152601660248201527520b63932b0b23c9039ba30b5b2b210313c903ab9b2b960511b60448201526064016103a1565b6008546106ce9085610d39565b6008556001600160a01b0383166000908152600960205260409020546106f49085610d39565b6001600160a01b03808516600090815260096020908152604080832094909455600a90529190912083905561074d907f000000000000000000000000000000000000000000000000000000000000000016333087610dad565b826001600160a01b03167f9e71bc8eea02a63969f509818f2dafb9254532904319f9dbda79b67bd34a5f3d8560405161078891815260200190565b60405180910390a250505050565b60006107a442600254610deb565b905090565b336107b26108d1565b6005556107bd610796565b6004556001600160a01b03811615610804576107d8816102d2565b6001600160a01b0382166000908152600760209081526040808320939093556005546006909152919020555b336000908152600a60205260409020541561081e57600080fd5b60085461082b9083610d39565b600855336000908152600960205260409020546108489083610d39565b33600081815260096020908152604080832094909455600a90529182209190915561089f907f00000000000000000000000000000000000000000000000000000000000000006001600160a01b0316903085610dad565b60405182815233907f9e71bc8eea02a63969f509818f2dafb9254532904319f9dbda79b67bd34a5f3d906020016105fa565b6000600854600014156108e5575060055490565b6107a461091660085461034069d3c21bcecceda100000061091060035461091060045461031b610796565b90610d21565b60055490610d39565b6000546001600160a01b0316331461098c5760405162461bcd60e51b815260206004820152602a60248201527f43616c6c6572206973206e6f742052657761726473446973747269627574696f6044820152691b8818dbdb9d1c9858dd60b21b60648201526084016103a1565b60006109966108d1565b6005556109a1610796565b6004556001600160a01b038116156109e8576109bc816102d2565b6001600160a01b0382166000908152600760209081526040808320939093556005546006909152919020555b6002546109f54284610d39565b1015610a435760405162461bcd60e51b815260206004820152601d60248201527f43616e6e6f7420726564756365206578697374696e6720706572696f6400000060448201526064016103a1565b6002544210610a5e57610a568383610d2d565b600355610a9d565b600254600090610a6e9042610d0e565b90506000610a8760035483610d2190919063ffffffff16565b9050610a97846103408784610d39565b60035550505b60007f00000000000000000000000000000000000000000000000000000000000000006001600160a01b03167f00000000000000000000000000000000000000000000000000000000000000006001600160a01b03161415610ba2576008546040516370a0823160e01b81523060048201527f00000000000000000000000000000000000000000000000000000000000000006001600160a01b0316906370a082319060240160206040518083038186803b158015610b5b57600080fd5b505afa158015610b6f573d6000803e3d6000fd5b505050506040513d601f19601f82011682018060405250810190610b9391906110c2565b610b9d91906111d5565b610c39565b6040516370a0823160e01b81523060048201527f00000000000000000000000000000000000000000000000000000000000000006001600160a01b0316906370a082319060240160206040518083038186803b158015610c0157600080fd5b505afa158015610c15573d6000803e3d6000fd5b505050506040513d601f19601f82011682018060405250810190610c3991906110c2565b9050610c458184610d2d565b6003541115610c965760405162461bcd60e51b815260206004820152601860248201527f50726f76696465642072657761726420746f6f2068696768000000000000000060448201526064016103a1565b426004819055610ca69084610d39565b60028190556040805186815260208101929092527f6c07ee05dcf262f13abf9d87b846ee789d2f90fe991d495acd7d7fc109ee1f55910160405180910390a150505050565b33600090815260096020526040902054610d0490610352565b610d0c610516565b565b6000610d1a82846111d5565b9392505050565b6000610d1a82846111b6565b6000610d1a8284611196565b6000610d1a828461117e565b6040516001600160a01b038316602482015260448101829052610da890849063a9059cbb60e01b906064015b60408051601f198184030181529190526020810180516001600160e01b03166001600160e01b031990931692909217909152610e01565b505050565b6040516001600160a01b0380851660248301528316604482015260648101829052610de59085906323b872dd60e01b90608401610d71565b50505050565b6000818310610dfa5781610d1a565b5090919050565b6000610e56826040518060400160405280602081526020017f5361666545524332303a206c6f772d6c6576656c2063616c6c206661696c6564815250856001600160a01b0316610ed39092919063ffffffff16565b805190915015610da85780806020019051810190610e74919061108a565b610da85760405162461bcd60e51b815260206004820152602a60248201527f5361666545524332303a204552433230206f7065726174696f6e20646964206e6044820152691bdd081cdd58d8d9595960b21b60648201526084016103a1565b6060610ee28484600085610eea565b949350505050565b606082471015610f4b5760405162461bcd60e51b815260206004820152602660248201527f416464726573733a20696e73756666696369656e742062616c616e636520666f6044820152651c8818d85b1b60d21b60648201526084016103a1565b6001600160a01b0385163b610fa25760405162461bcd60e51b815260206004820152601d60248201527f416464726573733a2063616c6c20746f206e6f6e2d636f6e747261637400000060448201526064016103a1565b600080866001600160a01b03168587604051610fbe919061112f565b60006040518083038185875af1925050503d8060008114610ffb576040519150601f19603f3d011682016040523d82523d6000602084013e611000565b606091505b509150915061101082828661101b565b979650505050505050565b6060831561102a575081610d1a565b82511561103a5782518084602001fd5b8160405162461bcd60e51b81526004016103a1919061114b565b80356001600160a01b038116811461106b57600080fd5b919050565b600060208284031215611081578081fd5b610d1a82611054565b60006020828403121561109b578081fd5b81518015158114610d1a578182fd5b6000602082840312156110bb578081fd5b5035919050565b6000602082840312156110d3578081fd5b5051919050565b6000806000606084860312156110ee578182fd5b833592506110fe60208501611054565b9150604084013590509250925092565b60008060408385031215611120578182fd5b50508035926020909101359150565b600082516111418184602087016111ec565b9190910192915050565b602081526000825180602084015261116a8160408501602087016111ec565b601f01601f19169190910160400192915050565b6000821982111561119157611191611218565b500190565b6000826111b157634e487b7160e01b81526012600452602481fd5b500490565b60008160001904831182151516156111d0576111d0611218565b500290565b6000828210156111e7576111e7611218565b500390565b60005b838110156112075781810151838201526020016111ef565b83811115610de55750506000910152565b634e487b7160e01b600052601160045260246000fdfea26469706673582212208130abf3deb4c5bd0a069a91206d5356878f1544523a08ca1e118260b2747a0364736f6c63430008040033a26469706673582212206c026d50eec67f384862621e87447a941decb21f0932e3380699881fd2c7fd8264736f6c63430008040033",
  "devdoc": {
    "kind": "dev",
    "methods": {
      "owner()": {
        "details": "Returns the address of the current owner."
      },
      "renounceOwnership()": {
        "details": "Leaves the contract without owner. It will not be possible to call `onlyOwner` functions anymore. Can only be called by the current owner. NOTE: Renouncing ownership will leave the contract without an owner, thereby removing any functionality that is only available to the owner."
      },
      "transferOwnership(address)": {
        "details": "Transfers ownership of the contract to a new account (`newOwner`). Can only be called by the current owner."
      }
    },
    "version": 1
  },
  "userdoc": {
    "kind": "user",
    "methods": {},
    "version": 1
  },
  "storageLayout": {
    "storage": [
      {
        "astId": 7,
        "contract": "contracts/StakingRewardsFactory.sol:StakingRewardsFactory",
        "label": "_owner",
        "offset": 0,
        "slot": "0",
        "type": "t_address"
      },
      {
        "astId": 115,
        "contract": "contracts/StakingRewardsFactory.sol:StakingRewardsFactory",
        "label": "_status",
        "offset": 0,
        "slot": "1",
        "type": "t_uint256"
      },
      {
        "astId": 2827,
        "contract": "contracts/StakingRewardsFactory.sol:StakingRewardsFactory",
        "label": "rewardsToken",
        "offset": 0,
        "slot": "2",
        "type": "t_address"
      },
      {
        "astId": 2829,
        "contract": "contracts/StakingRewardsFactory.sol:StakingRewardsFactory",
        "label": "stakingRewardsGenesis",
        "offset": 0,
        "slot": "3",
        "type": "t_uint256"
      },
      {
        "astId": 2832,
        "contract": "contracts/StakingRewardsFactory.sol:StakingRewardsFactory",
        "label": "stakingTokens",
        "offset": 0,
        "slot": "4",
        "type": "t_array(t_address)dyn_storage"
      },
      {
        "astId": 2844,
        "contract": "contracts/StakingRewardsFactory.sol:StakingRewardsFactory",
        "label": "stakingRewardsInfoByStakingToken",
        "offset": 0,
        "slot": "5",
        "type": "t_mapping(t_address,t_struct(StakingRewardsInfo)2839_storage)"
      }
    ],
    "types": {
      "t_address": {
        "encoding": "inplace",
        "label": "address",
        "numberOfBytes": "20"
      },
      "t_array(t_address)dyn_storage": {
        "base": "t_address",
        "encoding": "dynamic_array",
        "label": "address[]",
        "numberOfBytes": "32"
      },
      "t_mapping(t_address,t_struct(StakingRewardsInfo)2839_storage)": {
        "encoding": "mapping",
        "key": "t_address",
        "label": "mapping(address => struct StakingRewardsFactory.StakingRewardsInfo)",
        "numberOfBytes": "32",
        "value": "t_struct(StakingRewardsInfo)2839_storage"
      },
      "t_struct(StakingRewardsInfo)2839_storage": {
        "encoding": "inplace",
        "label": "struct StakingRewardsFactory.StakingRewardsInfo",
        "members": [
          {
            "astId": 2834,
            "contract": "contracts/StakingRewardsFactory.sol:StakingRewardsFactory",
            "label": "stakingRewards",
            "offset": 0,
            "slot": "0",
            "type": "t_address"
          },
          {
            "astId": 2836,
            "contract": "contracts/StakingRewardsFactory.sol:StakingRewardsFactory",
            "label": "rewardAmount",
            "offset": 0,
            "slot": "1",
            "type": "t_uint256"
          },
          {
            "astId": 2838,
            "contract": "contracts/StakingRewardsFactory.sol:StakingRewardsFactory",
            "label": "duration",
            "offset": 0,
            "slot": "2",
            "type": "t_uint256"
          }
        ],
        "numberOfBytes": "96"
      },
      "t_uint256": {
        "encoding": "inplace",
        "label": "uint256",
        "numberOfBytes": "32"
      }
    }
  }
}